{
  "_format": "hh-sol-artifact-1",
  "contractName": "MyNFT",
  "sourceName": "contracts/MyNFT.sol",
  "abi": [
    {
      "anonymous": false,
      "inputs": [
        {
          "indexed": true,
          "internalType": "address",
          "name": "owner",
          "type": "address"
        },
        {
          "indexed": true,
          "internalType": "address",
          "name": "approved",
          "type": "address"
        },
        {
          "indexed": true,
          "internalType": "uint256",
          "name": "tokenId",
          "type": "uint256"
        }
      ],
      "name": "Approval",
      "type": "event"
    },
    {
      "anonymous": false,
      "inputs": [
        {
          "indexed": true,
          "internalType": "address",
          "name": "owner",
          "type": "address"
        },
        {
          "indexed": true,
          "internalType": "address",
          "name": "operator",
          "type": "address"
        },
        {
          "indexed": false,
          "internalType": "bool",
          "name": "approved",
          "type": "bool"
        }
      ],
      "name": "ApprovalForAll",
      "type": "event"
    },
    {
      "anonymous": false,
      "inputs": [
        {
          "indexed": true,
          "internalType": "address",
          "name": "previousOwner",
          "type": "address"
        },
        {
          "indexed": true,
          "internalType": "address",
          "name": "newOwner",
          "type": "address"
        }
      ],
      "name": "OwnershipTransferred",
      "type": "event"
    },
    {
      "anonymous": false,
      "inputs": [
        {
          "indexed": true,
          "internalType": "address",
          "name": "from",
          "type": "address"
        },
        {
          "indexed": true,
          "internalType": "address",
          "name": "to",
          "type": "address"
        },
        {
          "indexed": true,
          "internalType": "uint256",
          "name": "tokenId",
          "type": "uint256"
        }
      ],
      "name": "Transfer",
      "type": "event"
    },
    {
      "inputs": [
        {
          "internalType": "address",
          "name": "to",
          "type": "address"
        },
        {
          "internalType": "uint256",
          "name": "tokenId",
          "type": "uint256"
        }
      ],
      "name": "approve",
      "outputs": [],
      "stateMutability": "nonpayable",
      "type": "function"
    },
    {
      "inputs": [
        {
          "internalType": "address",
          "name": "owner",
          "type": "address"
        }
      ],
      "name": "balanceOf",
      "outputs": [
        {
          "internalType": "uint256",
          "name": "",
          "type": "uint256"
        }
      ],
      "stateMutability": "view",
      "type": "function"
    },
    {
      "inputs": [
        {
          "internalType": "string",
          "name": "domain",
          "type": "string"
        }
      ],
      "name": "checkDomain",
      "outputs": [
        {
          "internalType": "bool",
          "name": "",
          "type": "bool"
        }
      ],
      "stateMutability": "pure",
      "type": "function"
    },
    {
      "inputs": [
        {
          "internalType": "uint256",
          "name": "tokenId",
          "type": "uint256"
        }
      ],
      "name": "getApproved",
      "outputs": [
        {
          "internalType": "address",
          "name": "",
          "type": "address"
        }
      ],
      "stateMutability": "view",
      "type": "function"
    },
    {
      "inputs": [],
      "name": "initialize",
      "outputs": [],
      "stateMutability": "nonpayable",
      "type": "function"
    },
    {
      "inputs": [
        {
          "internalType": "address",
          "name": "owner",
          "type": "address"
        },
        {
          "internalType": "address",
          "name": "operator",
          "type": "address"
        }
      ],
      "name": "isApprovedForAll",
      "outputs": [
        {
          "internalType": "bool",
          "name": "",
          "type": "bool"
        }
      ],
      "stateMutability": "view",
      "type": "function"
    },
    {
      "inputs": [
        {
          "internalType": "address",
          "name": "recipient",
          "type": "address"
        },
        {
          "internalType": "string",
          "name": "tokenUri",
          "type": "string"
        },
        {
          "internalType": "string",
          "name": "domain",
          "type": "string"
        }
      ],
      "name": "mintNFT",
      "outputs": [
        {
          "internalType": "uint256",
          "name": "",
          "type": "uint256"
        }
      ],
      "stateMutability": "nonpayable",
      "type": "function"
    },
    {
      "inputs": [],
      "name": "name",
      "outputs": [
        {
          "internalType": "string",
          "name": "",
          "type": "string"
        }
      ],
      "stateMutability": "view",
      "type": "function"
    },
    {
      "inputs": [],
      "name": "owner",
      "outputs": [
        {
          "internalType": "address",
          "name": "",
          "type": "address"
        }
      ],
      "stateMutability": "view",
      "type": "function"
    },
    {
      "inputs": [
        {
          "internalType": "uint256",
          "name": "tokenId",
          "type": "uint256"
        }
      ],
      "name": "ownerOf",
      "outputs": [
        {
          "internalType": "address",
          "name": "",
          "type": "address"
        }
      ],
      "stateMutability": "view",
      "type": "function"
    },
    {
      "inputs": [],
      "name": "renounceOwnership",
      "outputs": [],
      "stateMutability": "nonpayable",
      "type": "function"
    },
    {
      "inputs": [
        {
          "internalType": "string",
          "name": "domain",
          "type": "string"
        }
      ],
      "name": "resolveDomain",
      "outputs": [
        {
          "internalType": "string",
          "name": "",
          "type": "string"
        }
      ],
      "stateMutability": "view",
      "type": "function"
    },
    {
      "inputs": [
        {
          "internalType": "address",
          "name": "from",
          "type": "address"
        },
        {
          "internalType": "address",
          "name": "to",
          "type": "address"
        },
        {
          "internalType": "uint256",
          "name": "tokenId",
          "type": "uint256"
        }
      ],
      "name": "safeTransferFrom",
      "outputs": [],
      "stateMutability": "nonpayable",
      "type": "function"
    },
    {
      "inputs": [
        {
          "internalType": "address",
          "name": "from",
          "type": "address"
        },
        {
          "internalType": "address",
          "name": "to",
          "type": "address"
        },
        {
          "internalType": "uint256",
          "name": "tokenId",
          "type": "uint256"
        },
        {
          "internalType": "bytes",
          "name": "_data",
          "type": "bytes"
        }
      ],
      "name": "safeTransferFrom",
      "outputs": [],
      "stateMutability": "nonpayable",
      "type": "function"
    },
    {
      "inputs": [
        {
          "internalType": "address",
          "name": "operator",
          "type": "address"
        },
        {
          "internalType": "bool",
          "name": "approved",
          "type": "bool"
        }
      ],
      "name": "setApprovalForAll",
      "outputs": [],
      "stateMutability": "nonpayable",
      "type": "function"
    },
    {
      "inputs": [
        {
          "internalType": "bytes4",
          "name": "interfaceId",
          "type": "bytes4"
        }
      ],
      "name": "supportsInterface",
      "outputs": [
        {
          "internalType": "bool",
          "name": "",
          "type": "bool"
        }
      ],
      "stateMutability": "view",
      "type": "function"
    },
    {
      "inputs": [],
      "name": "symbol",
      "outputs": [
        {
          "internalType": "string",
          "name": "",
          "type": "string"
        }
      ],
      "stateMutability": "view",
      "type": "function"
    },
    {
      "inputs": [
        {
          "internalType": "uint256",
          "name": "tokenId",
          "type": "uint256"
        }
      ],
      "name": "tokenURI",
      "outputs": [
        {
          "internalType": "string",
          "name": "",
          "type": "string"
        }
      ],
      "stateMutability": "view",
      "type": "function"
    },
    {
      "inputs": [
        {
          "internalType": "address",
          "name": "from",
          "type": "address"
        },
        {
          "internalType": "address",
          "name": "to",
          "type": "address"
        },
        {
          "internalType": "uint256",
          "name": "tokenId",
          "type": "uint256"
        }
      ],
      "name": "transferFrom",
      "outputs": [],
      "stateMutability": "nonpayable",
      "type": "function"
    },
    {
      "inputs": [
        {
          "internalType": "address",
          "name": "newOwner",
          "type": "address"
        }
      ],
      "name": "transferOwnership",
      "outputs": [],
      "stateMutability": "nonpayable",
      "type": "function"
    }
  ],
  "bytecode": "0x608060405234801561001057600080fd5b5061391c806100206000396000f3fe608060405234801561001057600080fd5b506004361061012c5760003560e01c8063715018a6116100ad578063a3ee38ae11610071578063a3ee38ae1461032f578063b88d4fde1461035f578063c87b56dd1461037b578063e985e9c5146103ab578063f2fde38b146103db5761012c565b8063715018a6146102c35780638129fc1c146102cd5780638da5cb5b146102d757806395d89b41146102f5578063a22cb465146103135761012c565b8063364460f3116100f4578063364460f3146101e757806342842e0e1461021757806343166d78146102335780636352211e1461026357806370a08231146102935761012c565b806301ffc9a71461013157806306fdde0314610161578063081812fc1461017f578063095ea7b3146101af57806323b872dd146101cb575b600080fd5b61014b600480360381019061014691906126ed565b6103f7565b6040516101589190612c02565b60405180910390f35b6101696104d9565b6040516101769190612c1d565b60405180910390f35b61019960048036038101906101949190612784565b61056b565b6040516101a69190612b9b565b60405180910390f35b6101c960048036038101906101c491906126b1565b6105f0565b005b6101e560048036038101906101e09190612527565b610708565b005b61020160048036038101906101fc919061273f565b610768565b60405161020e9190612c1d565b60405180910390f35b610231600480360381019061022c9190612527565b6107ac565b005b61024d6004803603810190610248919061273f565b6107cc565b60405161025a9190612c02565b60405180910390f35b61027d60048036038101906102789190612784565b610a4a565b60405161028a9190612b9b565b60405180910390f35b6102ad60048036038101906102a891906124c2565b610afc565b6040516102ba9190612ebf565b60405180910390f35b6102cb610bb4565b005b6102d5610c3c565b005b6102df610da4565b6040516102ec9190612b9b565b60405180910390f35b6102fd610dce565b60405161030a9190612c1d565b60405180910390f35b61032d600480360381019061032891906125f1565b610e60565b005b6103496004803603810190610344919061262d565b610e76565b6040516103569190612ebf565b60405180910390f35b61037960048036038101906103749190612576565b610f68565b005b61039560048036038101906103909190612784565b610fca565b6040516103a29190612c1d565b60405180910390f35b6103c560048036038101906103c091906124eb565b610fdc565b6040516103d29190612c02565b60405180910390f35b6103f560048036038101906103f091906124c2565b611070565b005b60007f80ac58cd000000000000000000000000000000000000000000000000000000007bffffffffffffffffffffffffffffffffffffffffffffffffffffffff1916827bffffffffffffffffffffffffffffffffffffffffffffffffffffffff191614806104c257507f5b5e139f000000000000000000000000000000000000000000000000000000007bffffffffffffffffffffffffffffffffffffffffffffffffffffffff1916827bffffffffffffffffffffffffffffffffffffffffffffffffffffffff1916145b806104d257506104d182611168565b5b9050919050565b6060609780546104e890613122565b80601f016020809104026020016040519081016040528092919081815260200182805461051490613122565b80156105615780601f1061053657610100808354040283529160200191610561565b820191906000526020600020905b81548152906001019060200180831161054457829003601f168201915b5050505050905090565b6000610576826111d2565b6105b5576040517f08c379a00000000000000000000000000000000000000000000000000000000081526004016105ac90612dff565b60405180910390fd5b609b600083815260200190815260200160002060009054906101000a900473ffffffffffffffffffffffffffffffffffffffff169050919050565b60006105fb82610a4a565b90508073ffffffffffffffffffffffffffffffffffffffff168373ffffffffffffffffffffffffffffffffffffffff16141561066c576040517f08c379a000000000000000000000000000000000000000000000000000000000815260040161066390612e5f565b60405180910390fd5b8073ffffffffffffffffffffffffffffffffffffffff1661068b61123e565b73ffffffffffffffffffffffffffffffffffffffff1614806106ba57506106b9816106b461123e565b610fdc565b5b6106f9576040517f08c379a00000000000000000000000000000000000000000000000000000000081526004016106f090612d1f565b60405180910390fd5b6107038383611246565b505050565b61071961071361123e565b826112ff565b610758576040517f08c379a000000000000000000000000000000000000000000000000000000000815260040161074f90612e7f565b60405180910390fd5b6107638383836113dd565b505050565b60606000838360405160200161077f929190612b5e565b6040516020818303038152906040528051906020012060001c90506107a381610fca565b91505092915050565b6107c783838360405180602001604052806000815250610f68565b505050565b60008060009050600084848080601f016020809104026020016040519081016040528093929190818152602001838380828437600081840152601f19601f82011690508083019250505050505050905060005b81518160ff1610156108f5577f2e00000000000000000000000000000000000000000000000000000000000000828260ff1681518110610888577f4e487b7100000000000000000000000000000000000000000000000000000000600052603260045260246000fd5b602001015160f81c60f81b7effffffffffffffffffffffffffffffffffffffffffffffffffffffffffffff191614156108ca5782806108c6906131ce565b9350505b60018360ff1611156108e25760009350505050610a44565b80806108ed906131ce565b91505061081f565b5060018260ff1614801561098f57507f2e000000000000000000000000000000000000000000000000000000000000008160008151811061095f577f4e487b7100000000000000000000000000000000000000000000000000000000600052603260045260246000fd5b602001015160f81c60f81b7effffffffffffffffffffffffffffffffffffffffffffffffffffffffffffff191614155b8015610a2d57507f2e0000000000000000000000000000000000000000000000000000000000000081600183516109c6919061302b565b815181106109fd577f4e487b7100000000000000000000000000000000000000000000000000000000600052603260045260246000fd5b602001015160f81c60f81b7effffffffffffffffffffffffffffffffffffffffffffffffffffffffffffff191614155b15610a3d57600192505050610a44565b6000925050505b92915050565b6000806099600084815260200190815260200160002060009054906101000a900473ffffffffffffffffffffffffffffffffffffffff169050600073ffffffffffffffffffffffffffffffffffffffff168173ffffffffffffffffffffffffffffffffffffffff161415610af3576040517f08c379a0000000000000000000000000000000000000000000000000000000008152600401610aea90612d5f565b60405180910390fd5b80915050919050565b60008073ffffffffffffffffffffffffffffffffffffffff168273ffffffffffffffffffffffffffffffffffffffff161415610b6d576040517f08c379a0000000000000000000000000000000000000000000000000000000008152600401610b6490612d3f565b60405180910390fd5b609a60008373ffffffffffffffffffffffffffffffffffffffff1673ffffffffffffffffffffffffffffffffffffffff168152602001908152602001600020549050919050565b610bbc61123e565b73ffffffffffffffffffffffffffffffffffffffff16610bda610da4565b73ffffffffffffffffffffffffffffffffffffffff1614610c30576040517f08c379a0000000000000000000000000000000000000000000000000000000008152600401610c2790612e1f565b60405180910390fd5b610c3a6000611644565b565b600060019054906101000a900460ff16610c645760008054906101000a900460ff1615610c6d565b610c6c61170a565b5b610cac576040517f08c379a0000000000000000000000000000000000000000000000000000000008152600401610ca390612d9f565b60405180910390fd5b60008060019054906101000a900460ff161590508015610cfc576001600060016101000a81548160ff02191690831515021790555060016000806101000a81548160ff0219169083151502179055505b610d706040518060400160405280600581526020017f4d794e46540000000000000000000000000000000000000000000000000000008152506040518060400160405280600481526020017f4d4e46540000000000000000000000000000000000000000000000000000000081525061171b565b610d78611778565b610d806117c9565b8015610da15760008060016101000a81548160ff0219169083151502179055505b50565b6000603360009054906101000a900473ffffffffffffffffffffffffffffffffffffffff16905090565b606060988054610ddd90613122565b80601f0160208091040260200160405190810160405280929190818152602001828054610e0990613122565b8015610e565780601f10610e2b57610100808354040283529160200191610e56565b820191906000526020600020905b815481529060010190602001808311610e3957829003601f168201915b5050505050905090565b610e72610e6b61123e565b8383611822565b5050565b6000610e8061123e565b73ffffffffffffffffffffffffffffffffffffffff16610e9e610da4565b73ffffffffffffffffffffffffffffffffffffffff1614610ef4576040517f08c379a0000000000000000000000000000000000000000000000000000000008152600401610eeb90612e1f565b60405180910390fd5b6064838390501115610f0557600080fd5b610f0f83836107cc565b610f1857600080fd5b60008383604051602001610f2d929190612b5e565b6040516020818303038152906040528051906020012060001c9050610f52868261198f565b610f5c8186611b69565b80915050949350505050565b610f79610f7361123e565b836112ff565b610fb8576040517f08c379a0000000000000000000000000000000000000000000000000000000008152600401610faf90612e7f565b60405180910390fd5b610fc484848484611bdd565b50505050565b6060610fd582611c39565b9050919050565b6000609c60008473ffffffffffffffffffffffffffffffffffffffff1673ffffffffffffffffffffffffffffffffffffffff16815260200190815260200160002060008373ffffffffffffffffffffffffffffffffffffffff1673ffffffffffffffffffffffffffffffffffffffff16815260200190815260200160002060009054906101000a900460ff16905092915050565b61107861123e565b73ffffffffffffffffffffffffffffffffffffffff16611096610da4565b73ffffffffffffffffffffffffffffffffffffffff16146110ec576040517f08c379a00000000000000000000000000000000000000000000000000000000081526004016110e390612e1f565b60405180910390fd5b600073ffffffffffffffffffffffffffffffffffffffff168173ffffffffffffffffffffffffffffffffffffffff16141561115c576040517f08c379a000000000000000000000000000000000000000000000000000000000815260040161115390612c5f565b60405180910390fd5b61116581611644565b50565b60007f01ffc9a7000000000000000000000000000000000000000000000000000000007bffffffffffffffffffffffffffffffffffffffffffffffffffffffff1916827bffffffffffffffffffffffffffffffffffffffffffffffffffffffff1916149050919050565b60008073ffffffffffffffffffffffffffffffffffffffff166099600084815260200190815260200160002060009054906101000a900473ffffffffffffffffffffffffffffffffffffffff1673ffffffffffffffffffffffffffffffffffffffff1614159050919050565b600033905090565b81609b600083815260200190815260200160002060006101000a81548173ffffffffffffffffffffffffffffffffffffffff021916908373ffffffffffffffffffffffffffffffffffffffff160217905550808273ffffffffffffffffffffffffffffffffffffffff166112b983610a4a565b73ffffffffffffffffffffffffffffffffffffffff167f8c5be1e5ebec7d5bd14f71427d1e84f3dd0314c0f7b2291e5b200ac8c7c3b92560405160405180910390a45050565b600061130a826111d2565b611349576040517f08c379a000000000000000000000000000000000000000000000000000000000815260040161134090612cff565b60405180910390fd5b600061135483610a4a565b90508073ffffffffffffffffffffffffffffffffffffffff168473ffffffffffffffffffffffffffffffffffffffff1614806113c357508373ffffffffffffffffffffffffffffffffffffffff166113ab8461056b565b73ffffffffffffffffffffffffffffffffffffffff16145b806113d457506113d38185610fdc565b5b91505092915050565b8273ffffffffffffffffffffffffffffffffffffffff166113fd82610a4a565b73ffffffffffffffffffffffffffffffffffffffff1614611453576040517f08c379a000000000000000000000000000000000000000000000000000000000815260040161144a90612c7f565b60405180910390fd5b600073ffffffffffffffffffffffffffffffffffffffff168273ffffffffffffffffffffffffffffffffffffffff1614156114c3576040517f08c379a00000000000000000000000000000000000000000000000000000000081526004016114ba90612cbf565b60405180910390fd5b6114ce838383611d8b565b6114d9600082611246565b6001609a60008573ffffffffffffffffffffffffffffffffffffffff1673ffffffffffffffffffffffffffffffffffffffff1681526020019081526020016000206000828254611529919061302b565b925050819055506001609a60008473ffffffffffffffffffffffffffffffffffffffff1673ffffffffffffffffffffffffffffffffffffffff16815260200190815260200160002060008282546115809190612fa4565b92505081905550816099600083815260200190815260200160002060006101000a81548173ffffffffffffffffffffffffffffffffffffffff021916908373ffffffffffffffffffffffffffffffffffffffff160217905550808273ffffffffffffffffffffffffffffffffffffffff168473ffffffffffffffffffffffffffffffffffffffff167fddf252ad1be2c89b69c2b068fc378daa952ba7f163c4a11628f55a4df523b3ef60405160405180910390a461163f838383611d90565b505050565b6000603360009054906101000a900473ffffffffffffffffffffffffffffffffffffffff16905081603360006101000a81548173ffffffffffffffffffffffffffffffffffffffff021916908373ffffffffffffffffffffffffffffffffffffffff1602179055508173ffffffffffffffffffffffffffffffffffffffff168173ffffffffffffffffffffffffffffffffffffffff167f8be0079c531659141344cd1fd0a4f28419497f9722a3daafe3b4186f6b6457e060405160405180910390a35050565b600061171530611d95565b15905090565b600060019054906101000a900460ff1661176a576040517f08c379a000000000000000000000000000000000000000000000000000000000815260040161176190612e9f565b60405180910390fd5b6117748282611db8565b5050565b600060019054906101000a900460ff166117c7576040517f08c379a00000000000000000000000000000000000000000000000000000000081526004016117be90612e9f565b60405180910390fd5b565b600060019054906101000a900460ff16611818576040517f08c379a000000000000000000000000000000000000000000000000000000000815260040161180f90612e9f565b60405180910390fd5b611820611e39565b565b8173ffffffffffffffffffffffffffffffffffffffff168373ffffffffffffffffffffffffffffffffffffffff161415611891576040517f08c379a000000000000000000000000000000000000000000000000000000000815260040161188890612cdf565b60405180910390fd5b80609c60008573ffffffffffffffffffffffffffffffffffffffff1673ffffffffffffffffffffffffffffffffffffffff16815260200190815260200160002060008473ffffffffffffffffffffffffffffffffffffffff1673ffffffffffffffffffffffffffffffffffffffff16815260200190815260200160002060006101000a81548160ff0219169083151502179055508173ffffffffffffffffffffffffffffffffffffffff168373ffffffffffffffffffffffffffffffffffffffff167f17307eab39ab6107e8899845ad3d59bd9653f200f220920489ca2b5937696c31836040516119829190612c02565b60405180910390a3505050565b600073ffffffffffffffffffffffffffffffffffffffff168273ffffffffffffffffffffffffffffffffffffffff1614156119ff576040517f08c379a00000000000000000000000000000000000000000000000000000000081526004016119f690612dbf565b60405180910390fd5b611a08816111d2565b15611a48576040517f08c379a0000000000000000000000000000000000000000000000000000000008152600401611a3f90612c9f565b60405180910390fd5b611a5460008383611d8b565b6001609a60008473ffffffffffffffffffffffffffffffffffffffff1673ffffffffffffffffffffffffffffffffffffffff1681526020019081526020016000206000828254611aa49190612fa4565b92505081905550816099600083815260200190815260200160002060006101000a81548173ffffffffffffffffffffffffffffffffffffffff021916908373ffffffffffffffffffffffffffffffffffffffff160217905550808273ffffffffffffffffffffffffffffffffffffffff16600073ffffffffffffffffffffffffffffffffffffffff167fddf252ad1be2c89b69c2b068fc378daa952ba7f163c4a11628f55a4df523b3ef60405160405180910390a4611b6560008383611d90565b5050565b611b72826111d2565b611bb1576040517f08c379a0000000000000000000000000000000000000000000000000000000008152600401611ba890612d7f565b60405180910390fd5b8060c960008481526020019081526020016000209080519060200190611bd892919061229c565b505050565b611be88484846113dd565b611bf484848484611e9a565b611c33576040517f08c379a0000000000000000000000000000000000000000000000000000000008152600401611c2a90612c3f565b60405180910390fd5b50505050565b6060611c44826111d2565b611c83576040517f08c379a0000000000000000000000000000000000000000000000000000000008152600401611c7a90612ddf565b60405180910390fd5b600060c960008481526020019081526020016000208054611ca390613122565b80601f0160208091040260200160405190810160405280929190818152602001828054611ccf90613122565b8015611d1c5780601f10611cf157610100808354040283529160200191611d1c565b820191906000526020600020905b815481529060010190602001808311611cff57829003601f168201915b505050505090506000611d2d612031565b9050600081511415611d43578192505050611d86565b600082511115611d78578082604051602001611d60929190612b77565b60405160208183030381529060405292505050611d86565b611d8184612048565b925050505b919050565b505050565b505050565b6000808273ffffffffffffffffffffffffffffffffffffffff163b119050919050565b600060019054906101000a900460ff16611e07576040517f08c379a0000000000000000000000000000000000000000000000000000000008152600401611dfe90612e9f565b60405180910390fd5b8160979080519060200190611e1d92919061229c565b508060989080519060200190611e3492919061229c565b505050565b600060019054906101000a900460ff16611e88576040517f08c379a0000000000000000000000000000000000000000000000000000000008152600401611e7f90612e9f565b60405180910390fd5b611e98611e9361123e565b611644565b565b6000611ebb8473ffffffffffffffffffffffffffffffffffffffff16611d95565b15612024578373ffffffffffffffffffffffffffffffffffffffff1663150b7a02611ee461123e565b8786866040518563ffffffff1660e01b8152600401611f069493929190612bb6565b602060405180830381600087803b158015611f2057600080fd5b505af1925050508015611f5157506040513d601f19601f82011682018060405250810190611f4e9190612716565b60015b611fd4573d8060008114611f81576040519150601f19603f3d011682016040523d82523d6000602084013e611f86565b606091505b50600081511415611fcc576040517f08c379a0000000000000000000000000000000000000000000000000000000008152600401611fc390612c3f565b60405180910390fd5b805181602001fd5b63150b7a0260e01b7bffffffffffffffffffffffffffffffffffffffffffffffffffffffff1916817bffffffffffffffffffffffffffffffffffffffffffffffffffffffff191614915050612029565b600190505b949350505050565b606060405180602001604052806000815250905090565b6060612053826111d2565b612092576040517f08c379a000000000000000000000000000000000000000000000000000000000815260040161208990612e3f565b60405180910390fd5b600061209c612031565b905060008151116120bc57604051806020016040528060008152506120e7565b806120c6846120ef565b6040516020016120d7929190612b77565b6040516020818303038152906040525b915050919050565b60606000821415612137576040518060400160405280600181526020017f30000000000000000000000000000000000000000000000000000000000000008152509050612297565b600082905060005b6000821461216957808061215290613185565b915050600a826121629190612ffa565b915061213f565b60008167ffffffffffffffff8111156121ab577f4e487b7100000000000000000000000000000000000000000000000000000000600052604160045260246000fd5b6040519080825280601f01601f1916602001820160405280156121dd5781602001600182028036833780820191505090505b5090505b60008514612290576001826121f6919061302b565b9150600a8561220591906131f8565b60306122119190612fa4565b60f81b81838151811061224d577f4e487b7100000000000000000000000000000000000000000000000000000000600052603260045260246000fd5b60200101907effffffffffffffffffffffffffffffffffffffffffffffffffffffffffffff1916908160001a905350600a856122899190612ffa565b94506121e1565b8093505050505b919050565b8280546122a890613122565b90600052602060002090601f0160209004810192826122ca5760008555612311565b82601f106122e357805160ff1916838001178555612311565b82800160010185558215612311579182015b828111156123105782518255916020019190600101906122f5565b5b50905061231e9190612322565b5090565b5b8082111561233b576000816000905550600101612323565b5090565b600061235261234d84612eff565b612eda565b90508281526020810184848401111561236a57600080fd5b6123758482856130e0565b509392505050565b600061239061238b84612f30565b612eda565b9050828152602081018484840111156123a857600080fd5b6123b38482856130e0565b509392505050565b6000813590506123ca8161388a565b92915050565b6000813590506123df816138a1565b92915050565b6000813590506123f4816138b8565b92915050565b600081519050612409816138b8565b92915050565b600082601f83011261242057600080fd5b813561243084826020860161233f565b91505092915050565b60008083601f84011261244b57600080fd5b8235905067ffffffffffffffff81111561246457600080fd5b60208301915083600182028301111561247c57600080fd5b9250929050565b600082601f83011261249457600080fd5b81356124a484826020860161237d565b91505092915050565b6000813590506124bc816138cf565b92915050565b6000602082840312156124d457600080fd5b60006124e2848285016123bb565b91505092915050565b600080604083850312156124fe57600080fd5b600061250c858286016123bb565b925050602061251d858286016123bb565b9150509250929050565b60008060006060848603121561253c57600080fd5b600061254a868287016123bb565b935050602061255b868287016123bb565b925050604061256c868287016124ad565b9150509250925092565b6000806000806080858703121561258c57600080fd5b600061259a878288016123bb565b94505060206125ab878288016123bb565b93505060406125bc878288016124ad565b925050606085013567ffffffffffffffff8111156125d957600080fd5b6125e58782880161240f565b91505092959194509250565b6000806040838503121561260457600080fd5b6000612612858286016123bb565b9250506020612623858286016123d0565b9150509250929050565b6000806000806060858703121561264357600080fd5b6000612651878288016123bb565b945050602085013567ffffffffffffffff81111561266e57600080fd5b61267a87828801612483565b935050604085013567ffffffffffffffff81111561269757600080fd5b6126a387828801612439565b925092505092959194509250565b600080604083850312156126c457600080fd5b60006126d2858286016123bb565b92505060206126e3858286016124ad565b9150509250929050565b6000602082840312156126ff57600080fd5b600061270d848285016123e5565b91505092915050565b60006020828403121561272857600080fd5b6000612736848285016123fa565b91505092915050565b6000806020838503121561275257600080fd5b600083013567ffffffffffffffff81111561276c57600080fd5b61277885828601612439565b92509250509250929050565b60006020828403121561279657600080fd5b60006127a4848285016124ad565b91505092915050565b6127b68161305f565b82525050565b6127c581613071565b82525050565b60006127d682612f61565b6127e08185612f77565b93506127f08185602086016130ef565b6127f9816132e5565b840191505092915050565b60006128108385612f99565b935061281d8385846130e0565b82840190509392505050565b600061283482612f6c565b61283e8185612f88565b935061284e8185602086016130ef565b612857816132e5565b840191505092915050565b600061286d82612f6c565b6128778185612f99565b93506128878185602086016130ef565b80840191505092915050565b60006128a0603283612f88565b91506128ab826132f6565b604082019050919050565b60006128c3602683612f88565b91506128ce82613345565b604082019050919050565b60006128e6602583612f88565b91506128f182613394565b604082019050919050565b6000612909601c83612f88565b9150612914826133e3565b602082019050919050565b600061292c602483612f88565b91506129378261340c565b604082019050919050565b600061294f601983612f88565b915061295a8261345b565b602082019050919050565b6000612972602c83612f88565b915061297d82613484565b604082019050919050565b6000612995603883612f88565b91506129a0826134d3565b604082019050919050565b60006129b8602a83612f88565b91506129c382613522565b604082019050919050565b60006129db602983612f88565b91506129e682613571565b604082019050919050565b60006129fe602e83612f88565b9150612a09826135c0565b604082019050919050565b6000612a21602e83612f88565b9150612a2c8261360f565b604082019050919050565b6000612a44602083612f88565b9150612a4f8261365e565b602082019050919050565b6000612a67603183612f88565b9150612a7282613687565b604082019050919050565b6000612a8a602c83612f88565b9150612a95826136d6565b604082019050919050565b6000612aad602083612f88565b9150612ab882613725565b602082019050919050565b6000612ad0602f83612f88565b9150612adb8261374e565b604082019050919050565b6000612af3602183612f88565b9150612afe8261379d565b604082019050919050565b6000612b16603183612f88565b9150612b21826137ec565b604082019050919050565b6000612b39602b83612f88565b9150612b448261383b565b604082019050919050565b612b58816130c9565b82525050565b6000612b6b828486612804565b91508190509392505050565b6000612b838285612862565b9150612b8f8284612862565b91508190509392505050565b6000602082019050612bb060008301846127ad565b92915050565b6000608082019050612bcb60008301876127ad565b612bd860208301866127ad565b612be56040830185612b4f565b8181036060830152612bf781846127cb565b905095945050505050565b6000602082019050612c1760008301846127bc565b92915050565b60006020820190508181036000830152612c378184612829565b905092915050565b60006020820190508181036000830152612c5881612893565b9050919050565b60006020820190508181036000830152612c78816128b6565b9050919050565b60006020820190508181036000830152612c98816128d9565b9050919050565b60006020820190508181036000830152612cb8816128fc565b9050919050565b60006020820190508181036000830152612cd88161291f565b9050919050565b60006020820190508181036000830152612cf881612942565b9050919050565b60006020820190508181036000830152612d1881612965565b9050919050565b60006020820190508181036000830152612d3881612988565b9050919050565b60006020820190508181036000830152612d58816129ab565b9050919050565b60006020820190508181036000830152612d78816129ce565b9050919050565b60006020820190508181036000830152612d98816129f1565b9050919050565b60006020820190508181036000830152612db881612a14565b9050919050565b60006020820190508181036000830152612dd881612a37565b9050919050565b60006020820190508181036000830152612df881612a5a565b9050919050565b60006020820190508181036000830152612e1881612a7d565b9050919050565b60006020820190508181036000830152612e3881612aa0565b9050919050565b60006020820190508181036000830152612e5881612ac3565b9050919050565b60006020820190508181036000830152612e7881612ae6565b9050919050565b60006020820190508181036000830152612e9881612b09565b9050919050565b60006020820190508181036000830152612eb881612b2c565b9050919050565b6000602082019050612ed46000830184612b4f565b92915050565b6000612ee4612ef5565b9050612ef08282613154565b919050565b6000604051905090565b600067ffffffffffffffff821115612f1a57612f196132b6565b5b612f23826132e5565b9050602081019050919050565b600067ffffffffffffffff821115612f4b57612f4a6132b6565b5b612f54826132e5565b9050602081019050919050565b600081519050919050565b600081519050919050565b600082825260208201905092915050565b600082825260208201905092915050565b600081905092915050565b6000612faf826130c9565b9150612fba836130c9565b9250827fffffffffffffffffffffffffffffffffffffffffffffffffffffffffffffffff03821115612fef57612fee613229565b5b828201905092915050565b6000613005826130c9565b9150613010836130c9565b9250826130205761301f613258565b5b828204905092915050565b6000613036826130c9565b9150613041836130c9565b92508282101561305457613053613229565b5b828203905092915050565b600061306a826130a9565b9050919050565b60008115159050919050565b60007fffffffff0000000000000000000000000000000000000000000000000000000082169050919050565b600073ffffffffffffffffffffffffffffffffffffffff82169050919050565b6000819050919050565b600060ff82169050919050565b82818337600083830152505050565b60005b8381101561310d5780820151818401526020810190506130f2565b8381111561311c576000848401525b50505050565b6000600282049050600182168061313a57607f821691505b6020821081141561314e5761314d613287565b5b50919050565b61315d826132e5565b810181811067ffffffffffffffff8211171561317c5761317b6132b6565b5b80604052505050565b6000613190826130c9565b91507fffffffffffffffffffffffffffffffffffffffffffffffffffffffffffffffff8214156131c3576131c2613229565b5b600182019050919050565b60006131d9826130d3565b915060ff8214156131ed576131ec613229565b5b600182019050919050565b6000613203826130c9565b915061320e836130c9565b92508261321e5761321d613258565b5b828206905092915050565b7f4e487b7100000000000000000000000000000000000000000000000000000000600052601160045260246000fd5b7f4e487b7100000000000000000000000000000000000000000000000000000000600052601260045260246000fd5b7f4e487b7100000000000000000000000000000000000000000000000000000000600052602260045260246000fd5b7f4e487b7100000000000000000000000000000000000000000000000000000000600052604160045260246000fd5b6000601f19601f8301169050919050565b7f4552433732313a207472616e7366657220746f206e6f6e20455243373231526560008201527f63656976657220696d706c656d656e7465720000000000000000000000000000602082015250565b7f4f776e61626c653a206e6577206f776e657220697320746865207a65726f206160008201527f6464726573730000000000000000000000000000000000000000000000000000602082015250565b7f4552433732313a207472616e736665722066726f6d20696e636f72726563742060008201527f6f776e6572000000000000000000000000000000000000000000000000000000602082015250565b7f4552433732313a20746f6b656e20616c7265616479206d696e74656400000000600082015250565b7f4552433732313a207472616e7366657220746f20746865207a65726f2061646460008201527f7265737300000000000000000000000000000000000000000000000000000000602082015250565b7f4552433732313a20617070726f766520746f2063616c6c657200000000000000600082015250565b7f4552433732313a206f70657261746f7220717565727920666f72206e6f6e657860008201527f697374656e7420746f6b656e0000000000000000000000000000000000000000602082015250565b7f4552433732313a20617070726f76652063616c6c6572206973206e6f74206f7760008201527f6e6572206e6f7220617070726f76656420666f7220616c6c0000000000000000602082015250565b7f4552433732313a2062616c616e636520717565727920666f7220746865207a6560008201527f726f206164647265737300000000000000000000000000000000000000000000602082015250565b7f4552433732313a206f776e657220717565727920666f72206e6f6e657869737460008201527f656e7420746f6b656e0000000000000000000000000000000000000000000000602082015250565b7f45524337323155524953746f726167653a2055524920736574206f66206e6f6e60008201527f6578697374656e7420746f6b656e000000000000000000000000000000000000602082015250565b7f496e697469616c697a61626c653a20636f6e747261637420697320616c72656160008201527f647920696e697469616c697a6564000000000000000000000000000000000000602082015250565b7f4552433732313a206d696e7420746f20746865207a65726f2061646472657373600082015250565b7f45524337323155524953746f726167653a2055524920717565727920666f722060008201527f6e6f6e6578697374656e7420746f6b656e000000000000000000000000000000602082015250565b7f4552433732313a20617070726f76656420717565727920666f72206e6f6e657860008201527f697374656e7420746f6b656e0000000000000000000000000000000000000000602082015250565b7f4f776e61626c653a2063616c6c6572206973206e6f7420746865206f776e6572600082015250565b7f4552433732314d657461646174613a2055524920717565727920666f72206e6f60008201527f6e6578697374656e7420746f6b656e0000000000000000000000000000000000602082015250565b7f4552433732313a20617070726f76616c20746f2063757272656e74206f776e6560008201527f7200000000000000000000000000000000000000000000000000000000000000602082015250565b7f4552433732313a207472616e736665722063616c6c6572206973206e6f74206f60008201527f776e6572206e6f7220617070726f766564000000000000000000000000000000602082015250565b7f496e697469616c697a61626c653a20636f6e7472616374206973206e6f74206960008201527f6e697469616c697a696e67000000000000000000000000000000000000000000602082015250565b6138938161305f565b811461389e57600080fd5b50565b6138aa81613071565b81146138b557600080fd5b50565b6138c18161307d565b81146138cc57600080fd5b50565b6138d8816130c9565b81146138e357600080fd5b5056fea2646970667358221220a3fc0bb72ada48b50aa03ac3135f4055b7397f8bf8c476e880bc38fe3fc3bd8b64736f6c63430008030033",
  "linkReferences": {},
  "deployedLinkReferences": {}
}